{
  "_format": "hh-sol-artifact-1",
  "contractName": "BotlDao",
  "sourceName": "contracts/BotlDao.sol",
  "abi": [
    {
      "inputs": [],
      "stateMutability": "nonpayable",
      "type": "constructor"
    },
    {
      "anonymous": false,
      "inputs": [
        {
          "indexed": false,
          "internalType": "address",
          "name": "from",
          "type": "address"
        },
        {
          "indexed": false,
          "internalType": "address",
          "name": "to",
          "type": "address"
        },
        {
          "indexed": false,
          "internalType": "uint256",
          "name": "amount",
          "type": "uint256"
        }
      ],
      "name": "Sent",
      "type": "event"
    },
    {
      "inputs": [
        {
          "internalType": "address",
          "name": "addr",
          "type": "address"
        }
      ],
      "name": "balanceOf",
      "outputs": [
        {
          "internalType": "uint256",
          "name": "",
          "type": "uint256"
        }
      ],
      "stateMutability": "view",
      "type": "function"
    },
    {
      "inputs": [
        {
          "internalType": "address",
          "name": "",
          "type": "address"
        }
      ],
      "name": "balances",
      "outputs": [
        {
          "internalType": "uint256",
          "name": "",
          "type": "uint256"
        }
      ],
      "stateMutability": "view",
      "type": "function"
    },
    {
      "inputs": [
        {
          "internalType": "string",
          "name": "name",
          "type": "string"
        },
        {
          "internalType": "uint256",
          "name": "amountBotls",
          "type": "uint256"
        },
        {
          "internalType": "uint256",
          "name": "geoPosLat",
          "type": "uint256"
        },
        {
          "internalType": "uint256",
          "name": "geoPosLong",
          "type": "uint256"
        }
      ],
      "name": "createProjectProposal",
      "outputs": [],
      "stateMutability": "nonpayable",
      "type": "function"
    },
    {
      "inputs": [],
      "name": "decimals",
      "outputs": [
        {
          "internalType": "uint256",
          "name": "",
          "type": "uint256"
        }
      ],
      "stateMutability": "view",
      "type": "function"
    },
    {
      "inputs": [
        {
          "internalType": "uint256",
          "name": "_amount",
          "type": "uint256"
        }
      ],
      "name": "deposit",
      "outputs": [],
      "stateMutability": "nonpayable",
      "type": "function"
    },
    {
      "inputs": [],
      "name": "getProposals",
      "outputs": [],
      "stateMutability": "nonpayable",
      "type": "function"
    },
    {
      "inputs": [
        {
          "internalType": "address",
          "name": "receiver",
          "type": "address"
        },
        {
          "internalType": "uint256",
          "name": "amount",
          "type": "uint256"
        }
      ],
      "name": "mint",
      "outputs": [],
      "stateMutability": "nonpayable",
      "type": "function"
    },
    {
      "inputs": [],
      "name": "minter",
      "outputs": [
        {
          "internalType": "address",
          "name": "",
          "type": "address"
        }
      ],
      "stateMutability": "view",
      "type": "function"
    },
    {
      "inputs": [],
      "name": "name",
      "outputs": [
        {
          "internalType": "string",
          "name": "",
          "type": "string"
        }
      ],
      "stateMutability": "view",
      "type": "function"
    },
    {
      "inputs": [],
      "name": "nextProposalId",
      "outputs": [
        {
          "internalType": "uint256",
          "name": "",
          "type": "uint256"
        }
      ],
      "stateMutability": "view",
      "type": "function"
    },
    {
      "inputs": [],
      "name": "proposalId",
      "outputs": [
        {
          "internalType": "uint256",
          "name": "",
          "type": "uint256"
        }
      ],
      "stateMutability": "view",
      "type": "function"
    },
    {
      "inputs": [
        {
          "internalType": "uint256",
          "name": "",
          "type": "uint256"
        }
      ],
      "name": "proposals",
      "outputs": [
        {
          "internalType": "uint256",
          "name": "id",
          "type": "uint256"
        },
        {
          "internalType": "address",
          "name": "author",
          "type": "address"
        },
        {
          "internalType": "string",
          "name": "name",
          "type": "string"
        },
        {
          "internalType": "uint256",
          "name": "createdAt",
          "type": "uint256"
        },
        {
          "internalType": "uint256",
          "name": "votesForYes",
          "type": "uint256"
        },
        {
          "internalType": "uint256",
          "name": "votesForNo",
          "type": "uint256"
        },
        {
          "internalType": "enum BotlDao.Status",
          "name": "status",
          "type": "uint8"
        },
        {
          "internalType": "uint256",
          "name": "amountBotls",
          "type": "uint256"
        },
        {
          "internalType": "uint256",
          "name": "geoPosLat",
          "type": "uint256"
        },
        {
          "internalType": "uint256",
          "name": "geoPosLong",
          "type": "uint256"
        }
      ],
      "stateMutability": "view",
      "type": "function"
    },
    {
      "inputs": [
        {
          "internalType": "address",
          "name": "",
          "type": "address"
        }
      ],
      "name": "shares",
      "outputs": [
        {
          "internalType": "uint256",
          "name": "",
          "type": "uint256"
        }
      ],
      "stateMutability": "view",
      "type": "function"
    },
    {
      "inputs": [],
      "name": "symbol",
      "outputs": [
        {
          "internalType": "string",
          "name": "",
          "type": "string"
        }
      ],
      "stateMutability": "view",
      "type": "function"
    },
    {
      "inputs": [],
      "name": "token",
      "outputs": [
        {
          "internalType": "contract IERC20",
          "name": "",
          "type": "address"
        }
      ],
      "stateMutability": "view",
      "type": "function"
    },
    {
      "inputs": [],
      "name": "totalShares",
      "outputs": [
        {
          "internalType": "uint256",
          "name": "",
          "type": "uint256"
        }
      ],
      "stateMutability": "view",
      "type": "function"
    },
    {
      "inputs": [
        {
          "internalType": "address",
          "name": "receiver",
          "type": "address"
        },
        {
          "internalType": "uint256",
          "name": "amount",
          "type": "uint256"
        }
      ],
      "name": "transfer",
      "outputs": [],
      "stateMutability": "nonpayable",
      "type": "function"
    },
    {
      "inputs": [
        {
          "internalType": "uint256",
          "name": "_proposalId",
          "type": "uint256"
        },
        {
          "internalType": "enum BotlDao.VotingOptions",
          "name": "_vote",
          "type": "uint8"
        }
      ],
      "name": "vote",
      "outputs": [],
      "stateMutability": "nonpayable",
      "type": "function"
    },
    {
      "inputs": [
        {
          "internalType": "address",
          "name": "",
          "type": "address"
        },
        {
          "internalType": "uint256",
          "name": "",
          "type": "uint256"
        }
      ],
      "name": "votes",
      "outputs": [
        {
          "internalType": "bool",
          "name": "",
          "type": "bool"
        }
      ],
      "stateMutability": "view",
      "type": "function"
    },
    {
      "inputs": [
        {
          "internalType": "uint256",
          "name": "_amount",
          "type": "uint256"
        }
      ],
      "name": "withdraw",
      "outputs": [],
      "stateMutability": "nonpayable",
      "type": "function"
    }
  ],
  "bytecode": "0x60806040526040518060400160405280600781526020017f426f746c44616f0000000000000000000000000000000000000000000000000081525060009080519060200190620000519291906200014f565b5060126001556040518060400160405280600481526020017f424f544c0000000000000000000000000000000000000000000000000000000081525060029080519060200190620000a49291906200014f565b50348015620000b257600080fd5b5073a048b6a5c1be4b81d99c3fd993c98783adc2ef70600760006101000a81548173ffffffffffffffffffffffffffffffffffffffff021916908373ffffffffffffffffffffffffffffffffffffffff16021790555033600a60006101000a81548173ffffffffffffffffffffffffffffffffffffffff021916908373ffffffffffffffffffffffffffffffffffffffff16021790555062000264565b8280546200015d90620001ff565b90600052602060002090601f016020900481019282620001815760008555620001cd565b82601f106200019c57805160ff1916838001178555620001cd565b82800160010185558215620001cd579182015b82811115620001cc578251825591602001919060010190620001af565b5b509050620001dc9190620001e0565b5090565b5b80821115620001fb576000816000905550600101620001e1565b5090565b600060028204905060018216806200021857607f821691505b602082108114156200022f576200022e62000235565b5b50919050565b7f4e487b7100000000000000000000000000000000000000000000000000000000600052602260045260246000fd5b611dd180620002746000396000f3fe608060405234801561001057600080fd5b506004361061012c5760003560e01c806355da104b116100ad5780639f2524ee116100715780639f2524ee14610316578063a9059cbb14610346578063b6b55f2514610362578063ce7c2ac21461037e578063fc0c546a146103ae5761012c565b806355da104b1461028657806362564c48146102a257806370a08231146102ac578063943e8216146102dc57806395d89b41146102f85761012c565b80632dfca445116100f45780632dfca445146101f45780632e1a7d4d14610212578063313ce5671461022e5780633a98ef391461024c57806340c10f191461026a5761012c565b8063013cf08b1461013157806306fdde031461016a578063075461721461018857806327e235e3146101a65780632ab09d14146101d6575b600080fd5b61014b60048036038101906101469190611474565b6103cc565b6040516101619a9998979695949392919061179a565b60405180910390f35b6101726104d5565b60405161017f91906116bd565b60405180910390f35b610190610563565b60405161019d919061160c565b60405180910390f35b6101c060048036038101906101bb919061136b565b610589565b6040516101cd919061177f565b60405180910390f35b6101de6105a1565b6040516101eb919061177f565b60405180910390f35b6101fc6105a7565b604051610209919061177f565b60405180910390f35b61022c60048036038101906102279190611474565b6105ad565b005b610236610751565b604051610243919061177f565b60405180910390f35b610254610757565b604051610261919061177f565b60405180910390f35b610284600480360381019061027f9190611394565b61075d565b005b6102a0600480360381019061029b91906113f9565b610836565b005b6102aa610a91565b005b6102c660048036038101906102c1919061136b565b610a93565b6040516102d3919061177f565b60405180910390f35b6102f660048036038101906102f1919061149d565b610adc565b005b610300610e80565b60405161030d91906116bd565b60405180910390f35b610330600480360381019061032b9190611394565b610f0e565b60405161033d9190611687565b60405180910390f35b610360600480360381019061035b9190611394565b610f3d565b005b61037c60048036038101906103779190611474565b6110aa565b005b6103986004803603810190610393919061136b565b6111ce565b6040516103a5919061177f565b60405180910390f35b6103b66111e6565b6040516103c391906116a2565b60405180910390f35b60036020528060005260406000206000915090508060000154908060010160009054906101000a900473ffffffffffffffffffffffffffffffffffffffff169080600201805461041b90611a97565b80601f016020809104026020016040519081016040528092919081815260200182805461044790611a97565b80156104945780601f1061046957610100808354040283529160200191610494565b820191906000526020600020905b81548152906001019060200180831161047757829003601f168201915b5050505050908060030154908060040154908060050154908060060160009054906101000a900460ff1690806007015490806008015490806009015490508a565b600080546104e290611a97565b80601f016020809104026020016040519081016040528092919081815260200182805461050e90611a97565b801561055b5780601f106105305761010080835404028352916020019161055b565b820191906000526020600020905b81548152906001019060200180831161053e57829003601f168201915b505050505081565b600a60009054906101000a900473ffffffffffffffffffffffffffffffffffffffff1681565b600b6020528060005260406000206000915090505481565b60085481565b60095481565b80600560003373ffffffffffffffffffffffffffffffffffffffff1673ffffffffffffffffffffffffffffffffffffffff16815260200190815260200160002054101561062f576040517f08c379a00000000000000000000000000000000000000000000000000000000081526004016106269061173f565b60405180910390fd5b80600560003373ffffffffffffffffffffffffffffffffffffffff1673ffffffffffffffffffffffffffffffffffffffff168152602001908152602001600020600082825461067e9190611990565b9250508190555080600660008282546106979190611990565b92505081905550600760009054906101000a900473ffffffffffffffffffffffffffffffffffffffff1673ffffffffffffffffffffffffffffffffffffffff1663a9059cbb33836040518363ffffffff1660e01b81526004016106fb92919061165e565b602060405180830381600087803b15801561071557600080fd5b505af1158015610729573d6000803e3d6000fd5b505050506040513d601f19601f8201168201806040525081019061074d91906113d0565b5050565b60015481565b60065481565b600a60009054906101000a900473ffffffffffffffffffffffffffffffffffffffff1673ffffffffffffffffffffffffffffffffffffffff163373ffffffffffffffffffffffffffffffffffffffff16146107b757600080fd5b789f4f2726179a224501d762422c946590d9100000000000000081106107dc57600080fd5b80600b60008473ffffffffffffffffffffffffffffffffffffffff1673ffffffffffffffffffffffffffffffffffffffff168152602001908152602001600020600082825461082b91906118af565b925050819055505050565b68015af1d78b58c40000600560003373ffffffffffffffffffffffffffffffffffffffff1673ffffffffffffffffffffffffffffffffffffffff1681526020019081526020016000205410156108c1576040517f08c379a00000000000000000000000000000000000000000000000000000000081526004016108b8906116ff565b60405180910390fd5b60405180610140016040528060085481526020013373ffffffffffffffffffffffffffffffffffffffff1681526020018581526020014281526020016000815260200160008152602001600280811115610944577f4e487b7100000000000000000000000000000000000000000000000000000000600052602160045260246000fd5b8152602001848152602001838152602001828152506003600060085481526020019081526020016000206000820151816000015560208201518160010160006101000a81548173ffffffffffffffffffffffffffffffffffffffff021916908373ffffffffffffffffffffffffffffffffffffffff16021790555060408201518160020190805190602001906109db92919061120c565b50606082015181600301556080820151816004015560a0820151816005015560c08201518160060160006101000a81548160ff02191690836002811115610a4b577f4e487b7100000000000000000000000000000000000000000000000000000000600052602160045260246000fd5b021790555060e082015181600701556101008201518160080155610120820151816009015590505060086000815480929190610a8690611afa565b919050555050505050565b565b6000600b60008373ffffffffffffffffffffffffffffffffffffffff1673ffffffffffffffffffffffffffffffffffffffff168152602001908152602001600020549050919050565b600060036000848152602001908152602001600020905060001515600460003373ffffffffffffffffffffffffffffffffffffffff1673ffffffffffffffffffffffffffffffffffffffff168152602001908152602001600020600085815260200190815260200160002060009054906101000a900460ff16151514610b97576040517f08c379a0000000000000000000000000000000000000000000000000000000008152600401610b8e906116df565b60405180910390fd5b62093a808160030154610baa91906118af565b421115610bec576040517f08c379a0000000000000000000000000000000000000000000000000000000008152600401610be39061175f565b60405180910390fd5b6001600460003373ffffffffffffffffffffffffffffffffffffffff1673ffffffffffffffffffffffffffffffffffffffff168152602001908152602001600020600085815260200190815260200160002060006101000a81548160ff021916908315150217905550600180811115610c8e577f4e487b7100000000000000000000000000000000000000000000000000000000600052602160045260246000fd5b826001811115610cc7577f4e487b7100000000000000000000000000000000000000000000000000000000600052602160045260246000fd5b1415610da657600560003373ffffffffffffffffffffffffffffffffffffffff1673ffffffffffffffffffffffffffffffffffffffff16815260200190815260200160002054816004016000828254610d2091906118af565b92505081905550603260065460648360040154610d3d9190611936565b610d479190611905565b1115610da15760018160060160006101000a81548160ff02191690836002811115610d9b577f4e487b7100000000000000000000000000000000000000000000000000000000600052602160045260246000fd5b02179055505b610e7b565b600560003373ffffffffffffffffffffffffffffffffffffffff1673ffffffffffffffffffffffffffffffffffffffff16815260200190815260200160002054816005016000828254610df991906118af565b92505081905550603260065460648360050154610e169190611936565b610e209190611905565b1115610e7a5760008160060160006101000a81548160ff02191690836002811115610e74577f4e487b7100000000000000000000000000000000000000000000000000000000600052602160045260246000fd5b02179055505b5b505050565b60028054610e8d90611a97565b80601f0160208091040260200160405190810160405280929190818152602001828054610eb990611a97565b8015610f065780601f10610edb57610100808354040283529160200191610f06565b820191906000526020600020905b815481529060010190602001808311610ee957829003601f168201915b505050505081565b60046020528160005260406000206020528060005260406000206000915091509054906101000a900460ff1681565b600b60003373ffffffffffffffffffffffffffffffffffffffff1673ffffffffffffffffffffffffffffffffffffffff16815260200190815260200160002054811115610fbf576040517f08c379a0000000000000000000000000000000000000000000000000000000008152600401610fb69061171f565b60405180910390fd5b80600b60003373ffffffffffffffffffffffffffffffffffffffff1673ffffffffffffffffffffffffffffffffffffffff168152602001908152602001600020600082825461100e9190611990565b9250508190555080600b60008473ffffffffffffffffffffffffffffffffffffffff1673ffffffffffffffffffffffffffffffffffffffff168152602001908152602001600020600082825461106491906118af565b925050819055507f3990db2d31862302a685e8086b5755072a6e2b5b780af1ee81ece35ee3cd334533838360405161109e93929190611627565b60405180910390a15050565b80600560003373ffffffffffffffffffffffffffffffffffffffff1673ffffffffffffffffffffffffffffffffffffffff16815260200190815260200160002060008282546110f991906118af565b92505081905550806006600082825461111291906118af565b92505081905550600760009054906101000a900473ffffffffffffffffffffffffffffffffffffffff1673ffffffffffffffffffffffffffffffffffffffff166323b872dd3330846040518463ffffffff1660e01b815260040161117893929190611627565b602060405180830381600087803b15801561119257600080fd5b505af11580156111a6573d6000803e3d6000fd5b505050506040513d601f19601f820116820180604052508101906111ca91906113d0565b5050565b60056020528060005260406000206000915090505481565b600760009054906101000a900473ffffffffffffffffffffffffffffffffffffffff1681565b82805461121890611a97565b90600052602060002090601f01602090048101928261123a5760008555611281565b82601f1061125357805160ff1916838001178555611281565b82800160010185558215611281579182015b82811115611280578251825591602001919060010190611265565b5b50905061128e9190611292565b5090565b5b808211156112ab576000816000905550600101611293565b5090565b60006112c26112bd84611862565b61183d565b9050828152602081018484840111156112da57600080fd5b6112e5848285611a55565b509392505050565b6000813590506112fc81611d46565b92915050565b60008151905061131181611d5d565b92915050565b60008135905061132681611d74565b92915050565b600082601f83011261133d57600080fd5b813561134d8482602086016112af565b91505092915050565b60008135905061136581611d84565b92915050565b60006020828403121561137d57600080fd5b600061138b848285016112ed565b91505092915050565b600080604083850312156113a757600080fd5b60006113b5858286016112ed565b92505060206113c685828601611356565b9150509250929050565b6000602082840312156113e257600080fd5b60006113f084828501611302565b91505092915050565b6000806000806080858703121561140f57600080fd5b600085013567ffffffffffffffff81111561142957600080fd5b6114358782880161132c565b945050602061144687828801611356565b935050604061145787828801611356565b925050606061146887828801611356565b91505092959194509250565b60006020828403121561148657600080fd5b600061149484828501611356565b91505092915050565b600080604083850312156114b057600080fd5b60006114be85828601611356565b92505060206114cf85828601611317565b9150509250929050565b6114e2816119c4565b82525050565b6114f1816119d6565b82525050565b61150081611a1f565b82525050565b61150f81611a43565b82525050565b600061152082611893565b61152a818561189e565b935061153a818560208601611a64565b61154381611c2e565b840191505092915050565b600061155b600d8361189e565b915061156682611c3f565b602082019050919050565b600061157e60268361189e565b915061158982611c68565b604082019050919050565b60006115a160158361189e565b91506115ac82611cb7565b602082019050919050565b60006115c460118361189e565b91506115cf82611ce0565b602082019050919050565b60006115e760158361189e565b91506115f282611d09565b602082019050919050565b61160681611a15565b82525050565b600060208201905061162160008301846114d9565b92915050565b600060608201905061163c60008301866114d9565b61164960208301856114d9565b61165660408301846115fd565b949350505050565b600060408201905061167360008301856114d9565b61168060208301846115fd565b9392505050565b600060208201905061169c60008301846114e8565b92915050565b60006020820190506116b760008301846114f7565b92915050565b600060208201905081810360008301526116d78184611515565b905092915050565b600060208201905081810360008301526116f88161154e565b9050919050565b6000602082019050818103600083015261171881611571565b9050919050565b6000602082019050818103600083015261173881611594565b9050919050565b60006020820190508181036000830152611758816115b7565b9050919050565b60006020820190508181036000830152611778816115da565b9050919050565b600060208201905061179460008301846115fd565b92915050565b6000610140820190506117b0600083018d6115fd565b6117bd602083018c6114d9565b81810360408301526117cf818b611515565b90506117de606083018a6115fd565b6117eb60808301896115fd565b6117f860a08301886115fd565b61180560c0830187611506565b61181260e08301866115fd565b6118206101008301856115fd565b61182e6101208301846115fd565b9b9a5050505050505050505050565b6000611847611858565b90506118538282611ac9565b919050565b6000604051905090565b600067ffffffffffffffff82111561187d5761187c611bff565b5b61188682611c2e565b9050602081019050919050565b600081519050919050565b600082825260208201905092915050565b60006118ba82611a15565b91506118c583611a15565b9250827fffffffffffffffffffffffffffffffffffffffffffffffffffffffffffffffff038211156118fa576118f9611b43565b5b828201905092915050565b600061191082611a15565b915061191b83611a15565b92508261192b5761192a611b72565b5b828204905092915050565b600061194182611a15565b915061194c83611a15565b9250817fffffffffffffffffffffffffffffffffffffffffffffffffffffffffffffffff048311821515161561198557611984611b43565b5b828202905092915050565b600061199b82611a15565b91506119a683611a15565b9250828210156119b9576119b8611b43565b5b828203905092915050565b60006119cf826119f5565b9050919050565b60008115159050919050565b60008190506119f082611d32565b919050565b600073ffffffffffffffffffffffffffffffffffffffff82169050919050565b6000819050919050565b6000611a2a82611a31565b9050919050565b6000611a3c826119f5565b9050919050565b6000611a4e826119e2565b9050919050565b82818337600083830152505050565b60005b83811015611a82578082015181840152602081019050611a67565b83811115611a91576000848401525b50505050565b60006002820490506001821680611aaf57607f821691505b60208210811415611ac357611ac2611bd0565b5b50919050565b611ad282611c2e565b810181811067ffffffffffffffff82111715611af157611af0611bff565b5b80604052505050565b6000611b0582611a15565b91507fffffffffffffffffffffffffffffffffffffffffffffffffffffffffffffffff821415611b3857611b37611b43565b5b600182019050919050565b7f4e487b7100000000000000000000000000000000000000000000000000000000600052601160045260246000fd5b7f4e487b7100000000000000000000000000000000000000000000000000000000600052601260045260246000fd5b7f4e487b7100000000000000000000000000000000000000000000000000000000600052602160045260246000fd5b7f4e487b7100000000000000000000000000000000000000000000000000000000600052602260045260246000fd5b7f4e487b7100000000000000000000000000000000000000000000000000000000600052604160045260246000fd5b6000601f19601f8301169050919050565b7f616c726561647920766f74656400000000000000000000000000000000000000600082015250565b7f4e6f7420656e6f7567682073686172657320746f20637265617465206120707260008201527f6f706f73616c0000000000000000000000000000000000000000000000000000602082015250565b7f496e73756666696369656e742062616c616e63652e0000000000000000000000600082015250565b7f4e6f7420656e6f75676820736861726573000000000000000000000000000000600082015250565b7f566f74696e6720706572696f64206973206f7665720000000000000000000000600082015250565b60038110611d4357611d42611ba1565b5b50565b611d4f816119c4565b8114611d5a57600080fd5b50565b611d66816119d6565b8114611d7157600080fd5b50565b60028110611d8157600080fd5b50565b611d8d81611a15565b8114611d9857600080fd5b5056fea2646970667358221220d71e26673c7989a9349bd8252a642047418980780f949466082e442a9eba24ea64736f6c63430008040033",
  "linkReferences": {},
  "deployedLinkReferences": {}
}